{
  "_format": "hh-sol-artifact-1",
  "contractName": "Factory",
  "sourceName": "contracts/Factory.sol",
  "abi": [
    {
      "inputs": [
        {
          "internalType": "address",
          "name": "_bridgeAddress",
          "type": "address"
        },
        {
          "internalType": "address",
          "name": "_L1SeedProviderAddress",
          "type": "address"
        },
        {
          "internalType": "address[]",
          "name": "_facets",
          "type": "address[]"
        }
      ],
      "stateMutability": "nonpayable",
      "type": "constructor"
    },
    {
      "anonymous": false,
      "inputs": [
        {
          "indexed": true,
          "internalType": "address",
          "name": "_collection",
          "type": "address"
        }
      ],
      "name": "CollectionAddedToWhitelist",
      "type": "event"
    },
    {
      "anonymous": false,
      "inputs": [
        {
          "indexed": true,
          "internalType": "address",
          "name": "_collection",
          "type": "address"
        }
      ],
      "name": "CollectionRemovedFromWhitelist",
      "type": "event"
    },
    {
      "anonymous": false,
      "inputs": [
        {
          "indexed": true,
          "internalType": "address",
          "name": "_boxPoolAddress",
          "type": "address"
        },
        {
          "indexed": true,
          "internalType": "address",
          "name": "_creator",
          "type": "address"
        },
        {
          "indexed": true,
          "internalType": "uint256",
          "name": "_poolID",
          "type": "uint256"
        }
      ],
      "name": "NewPoolCreated",
      "type": "event"
    },
    {
      "anonymous": false,
      "inputs": [
        {
          "indexed": true,
          "internalType": "address",
          "name": "previousOwner",
          "type": "address"
        },
        {
          "indexed": true,
          "internalType": "address",
          "name": "newOwner",
          "type": "address"
        }
      ],
      "name": "OwnershipTransferred",
      "type": "event"
    },
    {
      "inputs": [],
      "name": "CREATOR_FEE_SHARE",
      "outputs": [
        {
          "internalType": "uint256",
          "name": "",
          "type": "uint256"
        }
      ],
      "stateMutability": "view",
      "type": "function"
    },
    {
      "inputs": [],
      "name": "FEE_RATE",
      "outputs": [
        {
          "internalType": "uint256",
          "name": "",
          "type": "uint256"
        }
      ],
      "stateMutability": "view",
      "type": "function"
    },
    {
      "inputs": [],
      "name": "POOL_MINT_TIMEOUT",
      "outputs": [
        {
          "internalType": "uint256",
          "name": "",
          "type": "uint256"
        }
      ],
      "stateMutability": "view",
      "type": "function"
    },
    {
      "inputs": [
        {
          "internalType": "address",
          "name": "_collection",
          "type": "address"
        }
      ],
      "name": "addCollectionToWhitelist",
      "outputs": [],
      "stateMutability": "nonpayable",
      "type": "function"
    },
    {
      "inputs": [
        {
          "internalType": "uint256",
          "name": "_poolID",
          "type": "uint256"
        }
      ],
      "name": "getPoolInfo",
      "outputs": [
        {
          "components": [
            {
              "internalType": "address",
              "name": "poolAddress",
              "type": "address"
            },
            {
              "internalType": "enum IPoolTypes.PoolState",
              "name": "state",
              "type": "uint8"
            },
            {
              "components": [
                {
                  "components": [
                    {
                      "internalType": "address",
                      "name": "collection",
                      "type": "address"
                    },
                    {
                      "internalType": "uint128",
                      "name": "count",
                      "type": "uint128"
                    },
                    {
                      "internalType": "uint128",
                      "name": "price",
                      "type": "uint128"
                    }
                  ],
                  "internalType": "struct IPoolTypes.NFTOrderBatch[]",
                  "name": "nftOrderBatches",
                  "type": "tuple[]"
                },
                {
                  "internalType": "uint256",
                  "name": "mintEndTime",
                  "type": "uint256"
                },
                {
                  "internalType": "uint256",
                  "name": "feeRate",
                  "type": "uint256"
                },
                {
                  "internalType": "uint256",
                  "name": "creatorFeeShare",
                  "type": "uint256"
                },
                {
                  "internalType": "uint256",
                  "name": "poolID",
                  "type": "uint256"
                },
                {
                  "internalType": "address",
                  "name": "creator",
                  "type": "address"
                },
                {
                  "internalType": "address",
                  "name": "protocolTreasury",
                  "type": "address"
                },
                {
                  "internalType": "address",
                  "name": "bridge",
                  "type": "address"
                },
                {
                  "internalType": "address",
                  "name": "seedProvider",
                  "type": "address"
                }
              ],
              "internalType": "struct IPoolTypes.PoolParams",
              "name": "meta",
              "type": "tuple"
            }
          ],
          "internalType": "struct IPoolFactory.PoolInfo",
          "name": "",
          "type": "tuple"
        }
      ],
      "stateMutability": "view",
      "type": "function"
    },
    {
      "inputs": [
        {
          "internalType": "address",
          "name": "_collection",
          "type": "address"
        }
      ],
      "name": "isCollectionOnWhitelist",
      "outputs": [
        {
          "internalType": "bool",
          "name": "",
          "type": "bool"
        }
      ],
      "stateMutability": "view",
      "type": "function"
    },
    {
      "inputs": [
        {
          "components": [
            {
              "internalType": "address",
              "name": "collection",
              "type": "address"
            },
            {
              "internalType": "uint128",
              "name": "count",
              "type": "uint128"
            },
            {
              "internalType": "uint128",
              "name": "price",
              "type": "uint128"
            }
          ],
          "internalType": "struct IPoolTypes.NFTOrderBatch[]",
          "name": "_nftOrderBatches",
          "type": "tuple[]"
        }
      ],
      "name": "newPool",
      "outputs": [
        {
          "internalType": "address",
          "name": "boxPoolAddress",
          "type": "address"
        }
      ],
      "stateMutability": "nonpayable",
      "type": "function"
    },
    {
      "inputs": [],
      "name": "numPool",
      "outputs": [
        {
          "internalType": "uint256",
          "name": "",
          "type": "uint256"
        }
      ],
      "stateMutability": "view",
      "type": "function"
    },
    {
      "inputs": [],
      "name": "owner",
      "outputs": [
        {
          "internalType": "address",
          "name": "",
          "type": "address"
        }
      ],
      "stateMutability": "view",
      "type": "function"
    },
    {
      "inputs": [
        {
          "internalType": "enum IPoolTypes.FacetKey",
          "name": "",
          "type": "uint8"
        }
      ],
      "name": "poolFacets",
      "outputs": [
        {
          "internalType": "address",
          "name": "",
          "type": "address"
        }
      ],
      "stateMutability": "view",
      "type": "function"
    },
    {
      "inputs": [
        {
          "internalType": "address",
          "name": "_collection",
          "type": "address"
        }
      ],
      "name": "removeCollectionFromWhitelist",
      "outputs": [],
      "stateMutability": "nonpayable",
      "type": "function"
    },
    {
      "inputs": [],
      "name": "renounceOwnership",
      "outputs": [],
      "stateMutability": "nonpayable",
      "type": "function"
    },
    {
      "inputs": [
        {
          "internalType": "address[]",
          "name": "_facets",
          "type": "address[]"
        }
      ],
      "name": "setFacets",
      "outputs": [],
      "stateMutability": "nonpayable",
      "type": "function"
    },
    {
      "inputs": [
        {
          "internalType": "uint256",
          "name": "_mintTimeout",
          "type": "uint256"
        }
      ],
      "name": "setMintTimeout",
      "outputs": [],
      "stateMutability": "nonpayable",
      "type": "function"
    },
    {
      "inputs": [
        {
          "internalType": "address",
          "name": "_seedProvider",
          "type": "address"
        }
      ],
      "name": "setSeedProvider",
      "outputs": [],
      "stateMutability": "nonpayable",
      "type": "function"
    },
    {
      "inputs": [
        {
          "internalType": "address",
          "name": "newOwner",
          "type": "address"
        }
      ],
      "name": "transferOwnership",
      "outputs": [],
      "stateMutability": "nonpayable",
      "type": "function"
    }
  ],
  "bytecode": "0x60806040526107086001553480156200001757600080fd5b5060405162001a3638038062001a368339810160408190526200003a91620002eb565b620000453362000268565b600280546001600160a01b038086166001600160a01b0319928316179092556003805492851692909116919091179055806000815181106200008b576200008b620003fb565b602002602001015160066000806003811115620000ac57620000ac620003e5565b6003811115620000c057620000c0620003e5565b8152602081019190915260400160002080546001600160a01b0319166001600160a01b039290921691909117905580600181518110620001045762000104620003fb565b60200260200101516006600060016003811115620001265762000126620003e5565b60038111156200013a576200013a620003e5565b8152602081019190915260400160002080546001600160a01b0319166001600160a01b0392909216919091179055806002815181106200017e576200017e620003fb565b60200260200101516006600060026003811115620001a057620001a0620003e5565b6003811115620001b457620001b4620003e5565b8152602081019190915260400160002080546001600160a01b0319166001600160a01b039290921691909117905580600381518110620001f857620001f8620003fb565b602002602001015160066000600380811115620002195762000219620003e5565b60038111156200022d576200022d620003e5565b815260200190815260200160002060006101000a8154816001600160a01b0302191690836001600160a01b0316021790555050505062000411565b600080546001600160a01b038381166001600160a01b0319831681178455604051919092169283917f8be0079c531659141344cd1fd0a4f28419497f9722a3daafe3b4186f6b6457e09190a35050565b80516001600160a01b0381168114620002d057600080fd5b919050565b634e487b7160e01b600052604160045260246000fd5b6000806000606084860312156200030157600080fd5b6200030c84620002b8565b925060206200031d818601620002b8565b60408601519093506001600160401b03808211156200033b57600080fd5b818701915087601f8301126200035057600080fd5b815181811115620003655762000365620002d5565b8060051b604051601f19603f830116810181811085821117156200038d576200038d620002d5565b60405291825284820192508381018501918a831115620003ac57600080fd5b938501935b82851015620003d557620003c585620002b8565b84529385019392850192620003b1565b8096505050505050509250925092565b634e487b7160e01b600052602160045260246000fd5b634e487b7160e01b600052603260045260246000fd5b61161580620004216000396000f3fe608060405234801561001057600080fd5b50600436106101005760003560e01c8063715018a6116100975780638da5cb5b116100665780638da5cb5b14610234578063d32b03eb14610245578063d6badc9514610258578063f2fde38b1461026157600080fd5b8063715018a6146101ca57806379264e59146101d25780637a1b8a96146101e5578063818f99421461022157600080fd5b806330959643116100d3578063309596431461015a5780634c0d011d1461016d5780634e0290c6146101ae5780636bad0638146101c157600080fd5b80631f79c1f914610105578063229b12c31461011c5780632d11c58a146101315780632f380b351461013a575b600080fd5b6004545b6040519081526020015b60405180910390f35b61012f61012a366004610edb565b610274565b005b6101096103e881565b61014d610148366004610eff565b61029e565b604051610113919061102e565b61012f610168366004610eff565b610469565b61019661017b36600461109a565b6006602052600090815260409020546001600160a01b031681565b6040516001600160a01b039091168152602001610113565b61012f6101bc366004610edb565b610476565b61010960015481565b61012f6104ff565b61012f6101e036600461116f565b610513565b6102116101f3366004610edb565b6001600160a01b031660009081526007602052604090205460ff1690565b6040519015158152602001610113565b61019661022f366004611223565b61074b565b6000546001600160a01b0316610196565b61012f610253366004610edb565b610c3b565b610109610bb881565b61012f61026f366004610edb565b610d09565b61027c610d82565b600380546001600160a01b0319166001600160a01b0392909216919091179055565b6103016040805160608082018352600080835260208084018290528451610120810186528381529081018290528085018290529182018190526080820181905260a0820181905260c0820181905260e08201819052610100820152909182015290565b60045482106103575760405162461bcd60e51b815260206004820152601760248201527f466163746f72793a20696e76616c696420706f6f6c494400000000000000000060448201526064015b60405180910390fd5b6000828152600560209081526040918290205482516060810184526001600160a01b03909116808252835163a057957d60e01b815293519093919283810192859263a057957d926004808401939192918290030181865afa1580156103c0573d6000803e3d6000fd5b505050506040513d601f19601f820116820180604052508101906103e491906112fc565b60038111156103f5576103f5610f18565b8152602001826001600160a01b031663cff0ab966040518163ffffffff1660e01b8152600401600060405180830381865afa158015610438573d6000803e3d6000fd5b505050506040513d6000823e601f3d908101601f1916820160405261046091908101906113d3565b90529392505050565b610471610d82565b600155565b61047e610d82565b6001600160a01b03811660009081526007602052604090205460ff166104b65760405162461bcd60e51b815260040161034e906114b2565b6001600160a01b038116600081815260076020526040808220805460ff19169055517f9e3ecfe085a490b1f2c284a0491d110ebcfff8832b7e3679cd03d60ef4fe2a6a9190a250565b610507610d82565b6105116000610ddc565b565b61051b610d82565b80516005146105765760405162461bcd60e51b815260206004820152602160248201527f466163746f72793a20696e76616c6964206e756d626572206f662066616365746044820152607360f81b606482015260840161034e565b80600081518110610589576105896114f6565b6020026020010151600660008060038111156105a7576105a7610f18565b60038111156105b8576105b8610f18565b815260200190815260200160002060006101000a8154816001600160a01b0302191690836001600160a01b03160217905550806001815181106105fd576105fd6114f6565b6020026020010151600660006001600381111561061c5761061c610f18565b600381111561062d5761062d610f18565b815260200190815260200160002060006101000a8154816001600160a01b0302191690836001600160a01b0316021790555080600281518110610672576106726114f6565b6020026020010151600660006002600381111561069157610691610f18565b60038111156106a2576106a2610f18565b815260200190815260200160002060006101000a8154816001600160a01b0302191690836001600160a01b03160217905550806003815181106106e7576106e76114f6565b60200260200101516006600060038081111561070557610705610f18565b600381111561071657610716610f18565b815260200190815260200160002060006101000a8154816001600160a01b0302191690836001600160a01b0316021790555050565b60008080805b845181101561088557600085828151811061076e5761076e6114f6565b6020026020010151905061079e81600001516001600160a01b031660009081526007602052604090205460ff1690565b6107ba5760405162461bcd60e51b815260040161034e906114b2565b600081604001516001600160801b03161180156107e45750600081602001516001600160801b0316115b6108305760405162461bcd60e51b815260206004820152601f60248201527f466163746f72793a20696e76616c6964207072696365206f7220636f756e7400604482015260640161034e565b6020810151610848906001600160801b031685611522565b93508060200151816040015161085e919061153b565b610871906001600160801b031684611522565b9250508061087e90611566565b9050610751565b506000821180156108965750600081115b80156108a857506001600160801b0382105b80156108ba57506001600160801b0381105b6109145760405162461bcd60e51b815260206004820152602560248201527f466163746f72793a20696e76616c696420636f756e7473206f7220746f74616c60448201526456616c756560d81b606482015260840161034e565b5050600080805260066020527f54cdd369e4e8a8515e52ca72ec816c2101831ad1f18bf44102ed171459c9b4f854610954906001600160a01b0316610e2c565b60408051600480825260a08201909252919250600091906020820160808036833750506001600081905260066020527f3e5fec24aa4dc4e5aee2e025e51e1392c72a2500577559fae9665c6d52bd6a315483519394506001600160a01b03169284925081106109c5576109c56114f6565b6001600160a01b039283166020918202929092018101919091526002600081905260069091527f8819ef417987f8ae7a81f42cdfb18815282fe989326fbff903d13cf0e03ace295483519216918391908110610a2357610a236114f6565b6001600160a01b039283166020918202929092018101919091526003600081905260069091527f75f96ab15d697e93042dc45b5c896c4b27e89bb6eaf39475c5c371cb2513f7d25483519216918391908110610a8157610a816114f6565b6001600160a01b039283166020918202929092010152604051636403f98560e01b815290831690636403f98590610abc90849060040161157f565b600060405180830381600087803b158015610ad657600080fd5b505af1158015610aea573d6000803e3d6000fd5b50505050600060405180610120016040528086815260200160015442610b109190611522565b81526103e86020820152610bb86040820152600454606082015233608082015260a001610b456000546001600160a01b031690565b6001600160a01b0390811682526002548116602083015260035481166040928301529051638dd721f560e01b8152919250841690638dd721f590610b8d9084906004016115cc565b600060405180830381600087803b158015610ba757600080fd5b505af1158015610bbb573d6000803e3d6000fd5b505060048054600090815260056020526040812080546001600160a01b0319166001600160a01b03891617905581549350909150610bf883611566565b9091555060405133906001600160a01b038616907f706d8395dbd23eb63eef38d4a536ae54896c2cc6e5a2cc523d6948564a4f23d090600090a450909392505050565b610c43610d82565b6001600160a01b03811660009081526007602052604090205460ff1615610cbd5760405162461bcd60e51b815260206004820152602860248201527f466163746f72793a20636f6c6c656374696f6e20616c7265616479206f6e20776044820152671a1a5d195b1a5cdd60c21b606482015260840161034e565b6001600160a01b038116600081815260076020526040808220805460ff19166001179055517fc6757dbc7fb2f8d2ad19a4c73767f4584dd07cf7fc2bcfefc9cbf1f0279177fe9190a250565b610d11610d82565b6001600160a01b038116610d765760405162461bcd60e51b815260206004820152602660248201527f4f776e61626c653a206e6577206f776e657220697320746865207a65726f206160448201526564647265737360d01b606482015260840161034e565b610d7f81610ddc565b50565b6000546001600160a01b031633146105115760405162461bcd60e51b815260206004820181905260248201527f4f776e61626c653a2063616c6c6572206973206e6f7420746865206f776e6572604482015260640161034e565b600080546001600160a01b038381166001600160a01b0319831681178455604051919092169283917f8be0079c531659141344cd1fd0a4f28419497f9722a3daafe3b4186f6b6457e09190a35050565b6000763d602d80600a3d3981f3363d3d373d3d3d363d730000008260601b60e81c176000526e5af43d82803e903d91602b57fd5bf38260781b17602052603760096000f090506001600160a01b038116610ec15760405162461bcd60e51b8152602060048201526016602482015275115490cc4c4d8dce8818dc99585d194819985a5b195960521b604482015260640161034e565b919050565b6001600160a01b0381168114610d7f57600080fd5b600060208284031215610eed57600080fd5b8135610ef881610ec6565b9392505050565b600060208284031215610f1157600080fd5b5035919050565b634e487b7160e01b600052602160045260246000fd5b80516101208084528151908401819052600091610140850191602091820190845b81811015610f9657825180516001600160a01b03168652848101516001600160801b0390811686880152604091820151169086015260609094019391830191600101610f4f565b50505080840151818601525060408301516040850152606083015160608501526080830151608085015260a0830151610fda60a08601826001600160a01b03169052565b5060c0830151610ff560c08601826001600160a01b03169052565b5060e083015161101060e08601826001600160a01b03169052565b50610100928301516001600160a01b03169390920192909252919050565b602080825282516001600160a01b0316828201528201516000906004811061106657634e487b7160e01b600052602160045260246000fd5b8060408401525060408301516060808401526110856080840182610f2e565b949350505050565b60048110610d7f57600080fd5b6000602082840312156110ac57600080fd5b8135610ef88161108d565b634e487b7160e01b600052604160045260246000fd5b6040516060810167ffffffffffffffff811182821017156110f0576110f06110b7565b60405290565b604051610120810167ffffffffffffffff811182821017156110f0576110f06110b7565b604051601f8201601f1916810167ffffffffffffffff81118282101715611143576111436110b7565b604052919050565b600067ffffffffffffffff821115611165576111656110b7565b5060051b60200190565b6000602080838503121561118257600080fd5b823567ffffffffffffffff81111561119957600080fd5b8301601f810185136111aa57600080fd5b80356111bd6111b88261114b565b61111a565b81815260059190911b820183019083810190878311156111dc57600080fd5b928401925b828410156112035783356111f481610ec6565b825292840192908401906111e1565b979650505050505050565b6001600160801b0381168114610d7f57600080fd5b6000602080838503121561123657600080fd5b823567ffffffffffffffff81111561124d57600080fd5b8301601f8101851361125e57600080fd5b803561126c6111b88261114b565b8181526060918202830184019184820191908884111561128b57600080fd5b938501935b838510156112f05780858a0312156112a85760008081fd5b6112b06110cd565b85356112bb81610ec6565b8152858701356112ca8161120e565b818801526040868101356112dd8161120e565b9082015283529384019391850191611290565b50979650505050505050565b60006020828403121561130e57600080fd5b8151610ef88161108d565b8051610ec181610ec6565b600082601f83011261133557600080fd5b815160206113456111b88361114b565b8281526060928302850182019282820191908785111561136457600080fd5b8387015b858110156113c65781818a0312156113805760008081fd5b6113886110cd565b815161139381610ec6565b8152818601516113a28161120e565b818701526040828101516113b58161120e565b908201528452928401928101611368565b5090979650505050505050565b6000602082840312156113e557600080fd5b815167ffffffffffffffff808211156113fd57600080fd5b90830190610120828603121561141257600080fd5b61141a6110f6565b82518281111561142957600080fd5b61143587828601611324565b8252506020830151602082015260408301516040820152606083015160608201526080830151608082015261146c60a08401611319565b60a082015261147d60c08401611319565b60c082015261148e60e08401611319565b60e082015261010091506114a3828401611319565b91810191909152949350505050565b60208082526024908201527f466163746f72793a20636f6c6c656374696f6e206e6f74206f6e2077686974656040820152631b1a5cdd60e21b606082015260800190565b634e487b7160e01b600052603260045260246000fd5b634e487b7160e01b600052601160045260246000fd5b808201808211156115355761153561150c565b92915050565b6001600160801b0381811683821602808216919082811461155e5761155e61150c565b505092915050565b6000600182016115785761157861150c565b5060010190565b6020808252825182820181905260009190848201906040850190845b818110156115c05783516001600160a01b03168352928401929184019160010161159b565b50909695505050505050565b602081526000610ef86020830184610f2e56fea264697066735822122093185d9b81887673857ab41cd8b9443af046e0313df085615b910fbaf648407864736f6c63430008120033",
  "linkReferences": {},
  "deployedLinkReferences": {}
}