{
  "_format": "hh-sol-artifact-1",
  "contractName": "Pool",
  "sourceName": "contracts/Pool.sol",
  "abi": [
    {
      "anonymous": false,
      "inputs": [
        {
          "indexed": true,
          "internalType": "address",
          "name": "owner",
          "type": "address"
        },
        {
          "indexed": true,
          "internalType": "address",
          "name": "approved",
          "type": "address"
        },
        {
          "indexed": true,
          "internalType": "uint256",
          "name": "tokenId",
          "type": "uint256"
        }
      ],
      "name": "Approval",
      "type": "event"
    },
    {
      "anonymous": false,
      "inputs": [
        {
          "indexed": true,
          "internalType": "address",
          "name": "owner",
          "type": "address"
        },
        {
          "indexed": true,
          "internalType": "address",
          "name": "operator",
          "type": "address"
        },
        {
          "indexed": false,
          "internalType": "bool",
          "name": "approved",
          "type": "bool"
        }
      ],
      "name": "ApprovalForAll",
      "type": "event"
    },
    {
      "anonymous": false,
      "inputs": [
        {
          "indexed": true,
          "internalType": "uint256",
          "name": "boxID",
          "type": "uint256"
        },
        {
          "indexed": false,
          "internalType": "address",
          "name": "owner",
          "type": "address"
        }
      ],
      "name": "BoxRedeemed",
      "type": "event"
    },
    {
      "anonymous": false,
      "inputs": [
        {
          "indexed": true,
          "internalType": "uint256",
          "name": "boxID",
          "type": "uint256"
        },
        {
          "indexed": false,
          "internalType": "address",
          "name": "owner",
          "type": "address"
        }
      ],
      "name": "BoxRefunded",
      "type": "event"
    },
    {
      "anonymous": false,
      "inputs": [
        {
          "indexed": true,
          "internalType": "uint256",
          "name": "buyOrderID",
          "type": "uint256"
        }
      ],
      "name": "BuyOrderFilled",
      "type": "event"
    },
    {
      "anonymous": false,
      "inputs": [
        {
          "indexed": false,
          "internalType": "uint8",
          "name": "version",
          "type": "uint8"
        }
      ],
      "name": "Initialized",
      "type": "event"
    },
    {
      "anonymous": false,
      "inputs": [
        {
          "indexed": true,
          "internalType": "address",
          "name": "previousOwner",
          "type": "address"
        },
        {
          "indexed": true,
          "internalType": "address",
          "name": "newOwner",
          "type": "address"
        }
      ],
      "name": "OwnershipTransferred",
      "type": "event"
    },
    {
      "anonymous": false,
      "inputs": [
        {
          "indexed": false,
          "internalType": "uint256",
          "name": "amount0",
          "type": "uint256"
        },
        {
          "indexed": false,
          "internalType": "uint256",
          "name": "amount1",
          "type": "uint256"
        }
      ],
      "name": "ProtocolFeesDistributed",
      "type": "event"
    },
    {
      "anonymous": false,
      "inputs": [],
      "name": "RevealRestarted",
      "type": "event"
    },
    {
      "anonymous": false,
      "inputs": [
        {
          "indexed": true,
          "internalType": "uint256",
          "name": "seedRequestID",
          "type": "uint256"
        },
        {
          "indexed": false,
          "internalType": "bytes32",
          "name": "seed",
          "type": "bytes32"
        }
      ],
      "name": "SeedDelivered",
      "type": "event"
    },
    {
      "anonymous": false,
      "inputs": [
        {
          "indexed": true,
          "internalType": "uint256",
          "name": "seedRequestID",
          "type": "uint256"
        }
      ],
      "name": "SeedRequestReceived",
      "type": "event"
    },
    {
      "anonymous": false,
      "inputs": [
        {
          "indexed": true,
          "internalType": "enum IPoolTypes.PoolState",
          "name": "from",
          "type": "uint8"
        },
        {
          "indexed": true,
          "internalType": "enum IPoolTypes.PoolState",
          "name": "to",
          "type": "uint8"
        }
      ],
      "name": "StateTransited",
      "type": "event"
    },
    {
      "anonymous": false,
      "inputs": [
        {
          "indexed": true,
          "internalType": "address",
          "name": "from",
          "type": "address"
        },
        {
          "indexed": true,
          "internalType": "address",
          "name": "to",
          "type": "address"
        },
        {
          "indexed": true,
          "internalType": "uint256",
          "name": "tokenId",
          "type": "uint256"
        }
      ],
      "name": "Transfer",
      "type": "event"
    },
    {
      "stateMutability": "payable",
      "type": "fallback"
    },
    {
      "inputs": [
        {
          "internalType": "address",
          "name": "to",
          "type": "address"
        },
        {
          "internalType": "uint256",
          "name": "tokenId",
          "type": "uint256"
        }
      ],
      "name": "approve",
      "outputs": [],
      "stateMutability": "nonpayable",
      "type": "function"
    },
    {
      "inputs": [
        {
          "internalType": "address",
          "name": "owner",
          "type": "address"
        }
      ],
      "name": "balanceOf",
      "outputs": [
        {
          "internalType": "uint256",
          "name": "",
          "type": "uint256"
        }
      ],
      "stateMutability": "view",
      "type": "function"
    },
    {
      "inputs": [
        {
          "internalType": "uint256",
          "name": "tokenId",
          "type": "uint256"
        }
      ],
      "name": "getApproved",
      "outputs": [
        {
          "internalType": "address",
          "name": "",
          "type": "address"
        }
      ],
      "stateMutability": "view",
      "type": "function"
    },
    {
      "inputs": [
        {
          "internalType": "address[]",
          "name": "facets",
          "type": "address[]"
        }
      ],
      "name": "initFacets",
      "outputs": [],
      "stateMutability": "nonpayable",
      "type": "function"
    },
    {
      "inputs": [
        {
          "internalType": "address",
          "name": "owner",
          "type": "address"
        },
        {
          "internalType": "address",
          "name": "operator",
          "type": "address"
        }
      ],
      "name": "isApprovedForAll",
      "outputs": [
        {
          "internalType": "bool",
          "name": "",
          "type": "bool"
        }
      ],
      "stateMutability": "view",
      "type": "function"
    },
    {
      "inputs": [],
      "name": "name",
      "outputs": [
        {
          "internalType": "string",
          "name": "",
          "type": "string"
        }
      ],
      "stateMutability": "view",
      "type": "function"
    },
    {
      "inputs": [
        {
          "internalType": "address",
          "name": "_operator",
          "type": "address"
        },
        {
          "internalType": "address",
          "name": "",
          "type": "address"
        },
        {
          "internalType": "uint256",
          "name": "",
          "type": "uint256"
        },
        {
          "internalType": "bytes",
          "name": "",
          "type": "bytes"
        }
      ],
      "name": "onERC721Received",
      "outputs": [
        {
          "internalType": "bytes4",
          "name": "",
          "type": "bytes4"
        }
      ],
      "stateMutability": "view",
      "type": "function"
    },
    {
      "inputs": [],
      "name": "owner",
      "outputs": [
        {
          "internalType": "address",
          "name": "",
          "type": "address"
        }
      ],
      "stateMutability": "view",
      "type": "function"
    },
    {
      "inputs": [
        {
          "internalType": "uint256",
          "name": "tokenId",
          "type": "uint256"
        }
      ],
      "name": "ownerOf",
      "outputs": [
        {
          "internalType": "address",
          "name": "",
          "type": "address"
        }
      ],
      "stateMutability": "view",
      "type": "function"
    },
    {
      "inputs": [],
      "name": "renounceOwnership",
      "outputs": [],
      "stateMutability": "nonpayable",
      "type": "function"
    },
    {
      "inputs": [
        {
          "internalType": "address",
          "name": "from",
          "type": "address"
        },
        {
          "internalType": "address",
          "name": "to",
          "type": "address"
        },
        {
          "internalType": "uint256",
          "name": "tokenId",
          "type": "uint256"
        }
      ],
      "name": "safeTransferFrom",
      "outputs": [],
      "stateMutability": "nonpayable",
      "type": "function"
    },
    {
      "inputs": [
        {
          "internalType": "address",
          "name": "from",
          "type": "address"
        },
        {
          "internalType": "address",
          "name": "to",
          "type": "address"
        },
        {
          "internalType": "uint256",
          "name": "tokenId",
          "type": "uint256"
        },
        {
          "internalType": "bytes",
          "name": "data",
          "type": "bytes"
        }
      ],
      "name": "safeTransferFrom",
      "outputs": [],
      "stateMutability": "nonpayable",
      "type": "function"
    },
    {
      "inputs": [
        {
          "internalType": "address",
          "name": "operator",
          "type": "address"
        },
        {
          "internalType": "bool",
          "name": "approved",
          "type": "bool"
        }
      ],
      "name": "setApprovalForAll",
      "outputs": [],
      "stateMutability": "nonpayable",
      "type": "function"
    },
    {
      "inputs": [
        {
          "internalType": "bytes4",
          "name": "interfaceId",
          "type": "bytes4"
        }
      ],
      "name": "supportsInterface",
      "outputs": [
        {
          "internalType": "bool",
          "name": "",
          "type": "bool"
        }
      ],
      "stateMutability": "view",
      "type": "function"
    },
    {
      "inputs": [],
      "name": "symbol",
      "outputs": [
        {
          "internalType": "string",
          "name": "",
          "type": "string"
        }
      ],
      "stateMutability": "view",
      "type": "function"
    },
    {
      "inputs": [
        {
          "internalType": "uint256",
          "name": "tokenId",
          "type": "uint256"
        }
      ],
      "name": "tokenURI",
      "outputs": [
        {
          "internalType": "string",
          "name": "",
          "type": "string"
        }
      ],
      "stateMutability": "view",
      "type": "function"
    },
    {
      "inputs": [
        {
          "internalType": "address",
          "name": "from",
          "type": "address"
        },
        {
          "internalType": "address",
          "name": "to",
          "type": "address"
        },
        {
          "internalType": "uint256",
          "name": "tokenId",
          "type": "uint256"
        }
      ],
      "name": "transferFrom",
      "outputs": [],
      "stateMutability": "nonpayable",
      "type": "function"
    },
    {
      "inputs": [
        {
          "internalType": "address",
          "name": "newOwner",
          "type": "address"
        }
      ],
      "name": "transferOwnership",
      "outputs": [],
      "stateMutability": "nonpayable",
      "type": "function"
    },
    {
      "stateMutability": "payable",
      "type": "receive"
    }
  ],
  "bytecode": "0x608060405234801561001057600080fd5b50611911806100206000396000f3fe60806040526004361061010d5760003560e01c806370a0823111610095578063a22cb46511610064578063a22cb46514610486578063b88d4fde146104a6578063c87b56dd146104c6578063e985e9c5146104e6578063f2fde38b1461052f5761016e565b806370a0823114610410578063715018a61461043e5780638da5cb5b1461045357806395d89b41146104715761016e565b8063150b7a02116100dc578063150b7a021461035757806323b872dd1461039057806342842e0e146103b05780636352211e146103d05780636403f985146103f05761016e565b806301ffc9a7146102a857806306fdde03146102dd578063081812fc146102ff578063095ea7b3146103375761016e565b3661016e5760405162461bcd60e51b815260206004820152602660248201527f506f6f6c3a2066616c6c6261636b2066756e6374696f6e206973206e6f742070604482015265617961626c6560d01b60648201526084015b60405180910390fd5b6003600090815260c96020527f1234f63686d2c3333368cbbe02c6c22a5a2f33123d326f5b3f444418d51d579c5490356001600160e01b031916906001600160a01b0316638dd721f560e01b8214806101d757506001600160e01b031982166367f855cb60e11b145b156102175750600160005260c96020527fec506dfa273b51989632259ed9c63e160e61bff5202e6a55d2c8927ffef177ed546001600160a01b0316610282565b6001600160e01b03198216630c035af960e11b148061024657506001600160e01b0319821663a0cd2a1360e01b145b156102825750600260005260c96020527f8cad034229e7b37f8fa1634fc76a99eb0843bd3d554bbf516dc212c13b2f1c76546001600160a01b03165b3660008037600080366000845af43d6000803e8080156102a1573d6000f35b3d6000fd5b005b3480156102b457600080fd5b506102c86102c336600461132a565b61054f565b60405190151581526020015b60405180910390f35b3480156102e957600080fd5b506102f26105a1565b6040516102d49190611397565b34801561030b57600080fd5b5061031f61031a3660046113aa565b610633565b6040516001600160a01b0390911681526020016102d4565b34801561034357600080fd5b506102a66103523660046113df565b61065a565b34801561036357600080fd5b50610377610372366004611409565b61076f565b6040516001600160e01b031990911681526020016102d4565b34801561039c57600080fd5b506102a66103ab3660046114a4565b6107db565b3480156103bc57600080fd5b506102a66103cb3660046114a4565b61080c565b3480156103dc57600080fd5b5061031f6103eb3660046113aa565b610827565b3480156103fc57600080fd5b506102a661040b366004611527565b610887565b34801561041c57600080fd5b5061043061042b3660046115d4565b610a58565b6040519081526020016102d4565b34801561044a57600080fd5b506102a6610ade565b34801561045f57600080fd5b506097546001600160a01b031661031f565b34801561047d57600080fd5b506102f2610af2565b34801561049257600080fd5b506102a66104a13660046115ef565b610b01565b3480156104b257600080fd5b506102a66104c136600461162b565b610b10565b3480156104d257600080fd5b506102f26104e13660046113aa565b610b48565b3480156104f257600080fd5b506102c86105013660046116eb565b6001600160a01b039182166000908152606a6020908152604080832093909416825291909152205460ff1690565b34801561053b57600080fd5b506102a661054a3660046115d4565b610bbc565b60006001600160e01b031982166380ac58cd60e01b148061058057506001600160e01b03198216635b5e139f60e01b145b8061059b57506301ffc9a760e01b6001600160e01b03198316145b92915050565b6060606580546105b09061171e565b80601f01602080910402602001604051908101604052809291908181526020018280546105dc9061171e565b80156106295780601f106105fe57610100808354040283529160200191610629565b820191906000526020600020905b81548152906001019060200180831161060c57829003601f168201915b5050505050905090565b600061063e82610c35565b506000908152606960205260409020546001600160a01b031690565b600061066582610827565b9050806001600160a01b0316836001600160a01b0316036106d25760405162461bcd60e51b815260206004820152602160248201527f4552433732313a20617070726f76616c20746f2063757272656e74206f776e656044820152603960f91b6064820152608401610165565b336001600160a01b03821614806106ee57506106ee8133610501565b6107605760405162461bcd60e51b815260206004820152603d60248201527f4552433732313a20617070726f76652063616c6c6572206973206e6f7420746f60448201527f6b656e206f776e6572206f7220617070726f76656420666f7220616c6c0000006064820152608401610165565b61076a8383610c94565b505050565b60006001600160a01b03861630146107c95760405162461bcd60e51b815260206004820152601d60248201527f506f6f6c3a20756e6578706563746564204e4654207472616e736665720000006044820152606401610165565b50630a85bd0160e11b95945050505050565b6107e53382610d02565b6108015760405162461bcd60e51b815260040161016590611758565b61076a838383610d81565b61076a83838360405180602001604052806000815250610b10565b6000818152606760205260408120546001600160a01b03168061059b5760405162461bcd60e51b8152602060048201526018602482015277115490cdcc8c4e881a5b9d985b1a59081d1bdad95b88125160421b6044820152606401610165565b600160005260c96020527fec506dfa273b51989632259ed9c63e160e61bff5202e6a55d2c8927ffef177ed546001600160a01b0316156108ff5760405162461bcd60e51b8152602060048201526013602482015272185b1c9958591e481a5b9a5d1a585b1a5e9959606a1b6044820152606401610165565b80600181518110610912576109126117a5565b602002602001015160c9600060016003811115610931576109316112fe565b6003811115610942576109426112fe565b8152602081019190915260400160002080546001600160a01b0319166001600160a01b039290921691909117905580600281518110610983576109836117a5565b602002602001015160c96000600260038111156109a2576109a26112fe565b60038111156109b3576109b36112fe565b8152602081019190915260400160002080546001600160a01b0319166001600160a01b0392909216919091179055806003815181106109f4576109f46117a5565b602002602001015160c96000600380811115610a1257610a126112fe565b6003811115610a2357610a236112fe565b815260200190815260200160002060006101000a8154816001600160a01b0302191690836001600160a01b0316021790555050565b60006001600160a01b038216610ac25760405162461bcd60e51b815260206004820152602960248201527f4552433732313a2061646472657373207a65726f206973206e6f7420612076616044820152683634b21037bbb732b960b91b6064820152608401610165565b506001600160a01b031660009081526068602052604090205490565b610ae6610ee5565b610af06000610f3f565b565b6060606680546105b09061171e565b610b0c338383610f91565b5050565b610b1a3383610d02565b610b365760405162461bcd60e51b815260040161016590611758565b610b428484848461105f565b50505050565b6060610b5382610c35565b6000610b6a60408051602081019091526000815290565b90506000815111610b8a5760405180602001604052806000815250610bb5565b80610b9484611092565b604051602001610ba59291906117bb565b6040516020818303038152906040525b9392505050565b610bc4610ee5565b6001600160a01b038116610c295760405162461bcd60e51b815260206004820152602660248201527f4f776e61626c653a206e6577206f776e657220697320746865207a65726f206160448201526564647265737360d01b6064820152608401610165565b610c3281610f3f565b50565b6000818152606760205260409020546001600160a01b0316610c325760405162461bcd60e51b8152602060048201526018602482015277115490cdcc8c4e881a5b9d985b1a59081d1bdad95b88125160421b6044820152606401610165565b600081815260696020526040902080546001600160a01b0319166001600160a01b0384169081179091558190610cc982610827565b6001600160a01b03167f8c5be1e5ebec7d5bd14f71427d1e84f3dd0314c0f7b2291e5b200ac8c7c3b92560405160405180910390a45050565b600080610d0e83610827565b9050806001600160a01b0316846001600160a01b03161480610d5557506001600160a01b038082166000908152606a602090815260408083209388168352929052205460ff165b80610d795750836001600160a01b0316610d6e84610633565b6001600160a01b0316145b949350505050565b826001600160a01b0316610d9482610827565b6001600160a01b031614610dba5760405162461bcd60e51b8152600401610165906117ea565b6001600160a01b038216610e1c5760405162461bcd60e51b8152602060048201526024808201527f4552433732313a207472616e7366657220746f20746865207a65726f206164646044820152637265737360e01b6064820152608401610165565b826001600160a01b0316610e2f82610827565b6001600160a01b031614610e555760405162461bcd60e51b8152600401610165906117ea565b600081815260696020908152604080832080546001600160a01b03199081169091556001600160a01b0387811680865260688552838620805460001901905590871680865283862080546001019055868652606790945282852080549092168417909155905184937fddf252ad1be2c89b69c2b068fc378daa952ba7f163c4a11628f55a4df523b3ef91a4505050565b6097546001600160a01b03163314610af05760405162461bcd60e51b815260206004820181905260248201527f4f776e61626c653a2063616c6c6572206973206e6f7420746865206f776e65726044820152606401610165565b609780546001600160a01b038381166001600160a01b0319831681179093556040519116919082907f8be0079c531659141344cd1fd0a4f28419497f9722a3daafe3b4186f6b6457e090600090a35050565b816001600160a01b0316836001600160a01b031603610ff25760405162461bcd60e51b815260206004820152601960248201527f4552433732313a20617070726f766520746f2063616c6c6572000000000000006044820152606401610165565b6001600160a01b038381166000818152606a6020908152604080832094871680845294825291829020805460ff191686151590811790915591519182527f17307eab39ab6107e8899845ad3d59bd9653f200f220920489ca2b5937696c31910160405180910390a3505050565b61106a848484610d81565b61107684848484611125565b610b425760405162461bcd60e51b81526004016101659061182f565b6060600061109f83611226565b600101905060008167ffffffffffffffff8111156110bf576110bf6114e0565b6040519080825280601f01601f1916602001820160405280156110e9576020820181803683370190505b5090508181016020015b600019016f181899199a1a9b1b9c1cb0b131b232b360811b600a86061a8153600a85049450846110f357509392505050565b60006001600160a01b0384163b1561121b57604051630a85bd0160e11b81526001600160a01b0385169063150b7a0290611169903390899088908890600401611881565b6020604051808303816000875af19250505080156111a4575060408051601f3d908101601f191682019092526111a1918101906118be565b60015b611201573d8080156111d2576040519150601f19603f3d011682016040523d82523d6000602084013e6111d7565b606091505b5080516000036111f95760405162461bcd60e51b81526004016101659061182f565b805181602001fd5b6001600160e01b031916630a85bd0160e11b149050610d79565b506001949350505050565b60008072184f03e93ff9f4daa797ed6e38ed64bf6a1f0160401b83106112655772184f03e93ff9f4daa797ed6e38ed64bf6a1f0160401b830492506040015b6d04ee2d6d415b85acef81000000008310611291576d04ee2d6d415b85acef8100000000830492506020015b662386f26fc1000083106112af57662386f26fc10000830492506010015b6305f5e10083106112c7576305f5e100830492506008015b61271083106112db57612710830492506004015b606483106112ed576064830492506002015b600a831061059b5760010192915050565b634e487b7160e01b600052602160045260246000fd5b6001600160e01b031981168114610c3257600080fd5b60006020828403121561133c57600080fd5b8135610bb581611314565b60005b8381101561136257818101518382015260200161134a565b50506000910152565b60008151808452611383816020860160208601611347565b601f01601f19169290920160200192915050565b602081526000610bb5602083018461136b565b6000602082840312156113bc57600080fd5b5035919050565b80356001600160a01b03811681146113da57600080fd5b919050565b600080604083850312156113f257600080fd5b6113fb836113c3565b946020939093013593505050565b60008060008060006080868803121561142157600080fd5b61142a866113c3565b9450611438602087016113c3565b935060408601359250606086013567ffffffffffffffff8082111561145c57600080fd5b818801915088601f83011261147057600080fd5b81358181111561147f57600080fd5b89602082850101111561149157600080fd5b9699959850939650602001949392505050565b6000806000606084860312156114b957600080fd5b6114c2846113c3565b92506114d0602085016113c3565b9150604084013590509250925092565b634e487b7160e01b600052604160045260246000fd5b604051601f8201601f1916810167ffffffffffffffff8111828210171561151f5761151f6114e0565b604052919050565b6000602080838503121561153a57600080fd5b823567ffffffffffffffff8082111561155257600080fd5b818501915085601f83011261156657600080fd5b813581811115611578576115786114e0565b8060051b91506115898483016114f6565b81815291830184019184810190888411156115a357600080fd5b938501935b838510156115c8576115b9856113c3565b825293850193908501906115a8565b98975050505050505050565b6000602082840312156115e657600080fd5b610bb5826113c3565b6000806040838503121561160257600080fd5b61160b836113c3565b91506020830135801515811461162057600080fd5b809150509250929050565b6000806000806080858703121561164157600080fd5b61164a856113c3565b935060206116598187016113c3565b935060408601359250606086013567ffffffffffffffff8082111561167d57600080fd5b818801915088601f83011261169157600080fd5b8135818111156116a3576116a36114e0565b6116b5601f8201601f191685016114f6565b915080825289848285010111156116cb57600080fd5b808484018584013760008482840101525080935050505092959194509250565b600080604083850312156116fe57600080fd5b611707836113c3565b9150611715602084016113c3565b90509250929050565b600181811c9082168061173257607f821691505b60208210810361175257634e487b7160e01b600052602260045260246000fd5b50919050565b6020808252602d908201527f4552433732313a2063616c6c6572206973206e6f7420746f6b656e206f776e6560408201526c1c881bdc88185c1c1c9bdd9959609a1b606082015260800190565b634e487b7160e01b600052603260045260246000fd5b600083516117cd818460208801611347565b8351908301906117e1818360208801611347565b01949350505050565b60208082526025908201527f4552433732313a207472616e736665722066726f6d20696e636f72726563742060408201526437bbb732b960d91b606082015260800190565b60208082526032908201527f4552433732313a207472616e7366657220746f206e6f6e20455243373231526560408201527131b2b4bb32b91034b6b83632b6b2b73a32b960711b606082015260800190565b6001600160a01b03858116825284166020820152604081018390526080606082018190526000906118b49083018461136b565b9695505050505050565b6000602082840312156118d057600080fd5b8151610bb58161131456fea26469706673582212201a3bd9981d694facf6f0981163df3bd94f081a98eec92962c1e91e1633cd369264736f6c63430008120033",
  "linkReferences": {},
  "deployedLinkReferences": {}
}